{
  "contractName": "Splitter",
  "abi": [
    {
      "constant": true,
      "inputs": [
        {
          "name": "",
          "type": "address"
        }
      ],
      "name": "splittedAmountMap",
      "outputs": [
        {
          "name": "",
          "type": "uint256"
        }
      ],
      "payable": false,
      "stateMutability": "view",
      "type": "function"
    },
    {
      "constant": true,
      "inputs": [],
      "name": "owner",
      "outputs": [
        {
          "name": "",
          "type": "address"
        }
      ],
      "payable": false,
      "stateMutability": "view",
      "type": "function"
    },
    {
      "constant": true,
      "inputs": [],
      "name": "contractShare",
      "outputs": [
        {
          "name": "",
          "type": "uint256"
        }
      ],
      "payable": false,
      "stateMutability": "view",
      "type": "function"
    },
    {
      "inputs": [],
      "payable": false,
      "stateMutability": "nonpayable",
      "type": "constructor"
    },
    {
      "constant": false,
      "inputs": [
        {
          "name": "receiver1",
          "type": "address"
        },
        {
          "name": "receiver2",
          "type": "address"
        }
      ],
      "name": "split",
      "outputs": [
        {
          "name": "success",
          "type": "bool"
        }
      ],
      "payable": true,
      "stateMutability": "payable",
      "type": "function"
    },
    {
      "constant": false,
      "inputs": [],
      "name": "withdrawFunds",
      "outputs": [
        {
          "name": "success",
          "type": "bool"
        }
      ],
      "payable": true,
      "stateMutability": "payable",
      "type": "function"
    },
    {
      "constant": true,
      "inputs": [
        {
          "name": "_address",
          "type": "address"
        }
      ],
      "name": "geSplittedAmount",
      "outputs": [
        {
          "name": "amount",
          "type": "uint256"
        }
      ],
      "payable": false,
      "stateMutability": "view",
      "type": "function"
    }
  ],
  "bytecode": "0x608060405234801561001057600080fd5b50336000806101000a81548173ffffffffffffffffffffffffffffffffffffffff021916908373ffffffffffffffffffffffffffffffffffffffff160217905550610867806100606000396000f300608060405260043610610078576000357c0100000000000000000000000000000000000000000000000000000000900463ffffffff16806303cff2061461007d5780630f2c9329146100d457806324600fc3146101425780638da5cb5b14610164578063a498e7cd146101bb578063dc5d3a68146101e6575b600080fd5b34801561008957600080fd5b506100be600480360381019080803573ffffffffffffffffffffffffffffffffffffffff16906020019092919050505061023d565b6040518082815260200191505060405180910390f35b610128600480360381019080803573ffffffffffffffffffffffffffffffffffffffff169060200190929190803573ffffffffffffffffffffffffffffffffffffffff169060200190929190505050610255565b604051808215151515815260200191505060405180910390f35b61014a61042e565b604051808215151515815260200191505060405180910390f35b34801561017057600080fd5b50610179610714565b604051808273ffffffffffffffffffffffffffffffffffffffff1673ffffffffffffffffffffffffffffffffffffffff16815260200191505060405180910390f35b3480156101c757600080fd5b506101d0610739565b6040518082815260200191505060405180910390f35b3480156101f257600080fd5b50610227600480360381019080803573ffffffffffffffffffffffffffffffffffffffff16906020019092919050505061073f565b6040518082815260200191505060405180910390f35b60016020528060005260406000206000915090505481565b60008060008473ffffffffffffffffffffffffffffffffffffffff1611151561027d57600080fd5b60008373ffffffffffffffffffffffffffffffffffffffff161115156102a257600080fd5b60006002348115156102b057fe5b061415610365576002348115156102c357fe5b04905080600160008673ffffffffffffffffffffffffffffffffffffffff1673ffffffffffffffffffffffffffffffffffffffff1681526020019081526020016000206000828254019250508190555080600160008573ffffffffffffffffffffffffffffffffffffffff1673ffffffffffffffffffffffffffffffffffffffff16815260200190815260200160002060008282540192505081905550610423565b60026001340381151561037457fe5b04905080600160008673ffffffffffffffffffffffffffffffffffffffff1673ffffffffffffffffffffffffffffffffffffffff1681526020019081526020016000206000828254019250508190555080600160008573ffffffffffffffffffffffffffffffffffffffff1673ffffffffffffffffffffffffffffffffffffffff1681526020019081526020016000206000828254019250508190555060016002600082825401925050819055505b600191505092915050565b600080600090506000600160003373ffffffffffffffffffffffffffffffffffffffff1673ffffffffffffffffffffffffffffffffffffffff16815260200190815260200160002054111561055057600160003373ffffffffffffffffffffffffffffffffffffffff1673ffffffffffffffffffffffffffffffffffffffff1681526020019081526020016000205490506000600160003373ffffffffffffffffffffffffffffffffffffffff1673ffffffffffffffffffffffffffffffffffffffff168152602001908152602001600020819055503373ffffffffffffffffffffffffffffffffffffffff166108fc829081150290604051600060405180830381858888f1935050505015801561054a573d6000803e3d6000fd5b5061070c565b6000809054906101000a900473ffffffffffffffffffffffffffffffffffffffff1673ffffffffffffffffffffffffffffffffffffffff163373ffffffffffffffffffffffffffffffffffffffff16141561069d576000600254111561062a57600254905060006002819055506000809054906101000a900473ffffffffffffffffffffffffffffffffffffffff1673ffffffffffffffffffffffffffffffffffffffff166108fc829081150290604051600060405180830381858888f19350505050158015610624573d6000803e3d6000fd5b50610698565b6040517f08c379a000000000000000000000000000000000000000000000000000000000815260040180806020018281038252601f8152602001807f446f6573206e6f7420686176652066756e647320746f2077697468647261770081525060200191505060405180910390fd5b61070b565b6040517f08c379a000000000000000000000000000000000000000000000000000000000815260040180806020018281038252601f8152602001807f446f6573206e6f7420686176652066756e647320746f2077697468647261770081525060200191505060405180910390fd5b5b600191505090565b6000809054906101000a900473ffffffffffffffffffffffffffffffffffffffff1681565b60025481565b6000808273ffffffffffffffffffffffffffffffffffffffff161115156107f4576040517f08c379a00000000000000000000000000000000000000000000000000000000081526004018080602001828103825260268152602001807f6d7573742070726f7669646520612076616c6964206164647265737320746f2081526020017f6c6f6f6b7570000000000000000000000000000000000000000000000000000081525060400191505060405180910390fd5b600160008373ffffffffffffffffffffffffffffffffffffffff1673ffffffffffffffffffffffffffffffffffffffff1681526020019081526020016000205490509190505600a165627a7a72305820d13f5b892417c62ae2af63c46805be9f4d8fae909d9097e1c21cb44fe00b32230029",
  "source": "pragma solidity ^0.4.6;\n\ncontract Splitter {\n    // address public bob;\n    // address public carol;\n    address public owner;\n    mapping(address => uint) public splittedAmountMap;\n    uint public contractShare;\n\n    constructor () public {\n        // require(_bob > 0);\n        // require(_carol > 0);\n        owner = msg.sender;\n        // bob = _bob;\n        // carol = _carol;\n\n    }\n\n    function split(address receiver1, address receiver2) public payable returns(bool success) {\n        // if( msg.sender != owner) {\n        //     revert(\"Sender is not the owner\");\n        // }\n        require(receiver1 > 0);\n        require(receiver2 > 0);\n\n        uint splittedHalfAmount;\n\n        if(msg.value % 2 == 0) {\n            splittedHalfAmount = msg.value / 2;\n            splittedAmountMap[receiver1] += splittedHalfAmount;\n            splittedAmountMap[receiver2] += splittedHalfAmount;\n        } else {\n            splittedHalfAmount = (msg.value - 1) / 2;\n            splittedAmountMap[receiver1] += splittedHalfAmount;\n            splittedAmountMap[receiver2] += splittedHalfAmount;\n            contractShare += 1;\n        }\n\n        return true;\n    }\n\n    function withdrawFunds() public payable returns(bool success) {\n        uint amountToTransfer = 0;\n\n        if(splittedAmountMap[msg.sender] > 0) {\n            amountToTransfer = splittedAmountMap[msg.sender];\n            splittedAmountMap[msg.sender] = 0;\n            msg.sender.transfer(amountToTransfer);\n        } else if(msg.sender == owner) {\n            if(contractShare > 0) {\n                amountToTransfer = contractShare;\n                contractShare = 0;\n                owner.transfer(amountToTransfer);\n            } else {\n                revert(\"Does not have funds to withdraw\");\n            }            \n        } else {\n            revert(\"Does not have funds to withdraw\");\n        }\n\n\n        // if(msg.sender == bob) {\n        //     if(splittedAmountMap[bob] > 0) {\n        //         amountToTransfer = splittedAmountMap[bob];\n        //         splittedAmountMap[bob] = 0;\n        //         bob.transfer(amountToTransfer);\n        //     } else {\n        //         revert(\"Does not have funds to withdraw\");\n        //     }\n        // } else if(msg.sender == carol) {\n        //     if(splittedAmountMap[carol] > 0) {\n        //         amountToTransfer = splittedAmountMap[carol];\n        //         splittedAmountMap[carol] = 0;\n        //         carol.transfer(amountToTransfer);\n        //     } else {\n        //         revert(\"Does not have funds to withdraw\");\n        //     }\n        // } else if(msg.sender == owner) {\n        //     if(contractShare > 0) {\n        //         amountToTransfer = contractShare;\n        //         contractShare = 0;\n        //         owner.transfer(amountToTransfer);\n        //     } else {\n        //         revert(\"Does not have funds to withdraw\");\n        //     }            \n        // } else {\n        //     revert(\"un-recognized Sender\");\n        // }\n        return true;\n    }\n\n    function geSplittedAmount(address _address) public view returns(uint amount) {\n        require(_address > 0, \"must provide a valid address to lookup\");\n        return splittedAmountMap[_address];\n    }\n}",
  "sourcePath": "/home/mohanerra/ethereum-training/DAPPS/github/ethereumtraining-project1/contracts/Splitter.sol",
  "compiler": {
    "name": "solc",
    "version": "0.4.24+commit.e67f0147.Emscripten.clang"
  },
  "schemaVersion": "2.0.1",
  "updatedAt": "2018-09-05T06:13:52.636Z"
}