{
  "contractName": "Splitter",
  "abi": [
    {
      "constant": true,
      "inputs": [],
      "name": "carol",
      "outputs": [
        {
          "name": "",
          "type": "address"
        }
      ],
      "payable": false,
      "stateMutability": "view",
      "type": "function"
    },
    {
      "constant": true,
      "inputs": [],
      "name": "owner",
      "outputs": [
        {
          "name": "",
          "type": "address"
        }
      ],
      "payable": false,
      "stateMutability": "view",
      "type": "function"
    },
    {
      "constant": true,
      "inputs": [],
      "name": "contractShare",
      "outputs": [
        {
          "name": "",
          "type": "uint256"
        }
      ],
      "payable": false,
      "stateMutability": "view",
      "type": "function"
    },
    {
      "constant": true,
      "inputs": [],
      "name": "bob",
      "outputs": [
        {
          "name": "",
          "type": "address"
        }
      ],
      "payable": false,
      "stateMutability": "view",
      "type": "function"
    },
    {
      "inputs": [
        {
          "name": "_bob",
          "type": "address"
        },
        {
          "name": "_carol",
          "type": "address"
        }
      ],
      "payable": false,
      "stateMutability": "nonpayable",
      "type": "constructor"
    },
    {
      "constant": false,
      "inputs": [],
      "name": "split",
      "outputs": [
        {
          "name": "success",
          "type": "bool"
        }
      ],
      "payable": true,
      "stateMutability": "payable",
      "type": "function"
    },
    {
      "constant": true,
      "inputs": [],
      "name": "getContractShare",
      "outputs": [
        {
          "name": "cshare",
          "type": "uint256"
        }
      ],
      "payable": false,
      "stateMutability": "view",
      "type": "function"
    }
  ],
  "bytecode": "0x608060405234801561001057600080fd5b506040516040806105ef833981018060405281019080805190602001909291908051906020019092919050505060008273ffffffffffffffffffffffffffffffffffffffff1611151561006257600080fd5b60008173ffffffffffffffffffffffffffffffffffffffff1611151561008757600080fd5b33600260006101000a81548173ffffffffffffffffffffffffffffffffffffffff021916908373ffffffffffffffffffffffffffffffffffffffff160217905550816000806101000a81548173ffffffffffffffffffffffffffffffffffffffff021916908373ffffffffffffffffffffffffffffffffffffffff16021790555080600160006101000a81548173ffffffffffffffffffffffffffffffffffffffff021916908373ffffffffffffffffffffffffffffffffffffffff16021790555050506104958061015a6000396000f300608060405260043610610078576000357c0100000000000000000000000000000000000000000000000000000000900463ffffffff1680638b930f151461007d5780638da5cb5b146100d4578063931549cf1461012b578063a498e7cd14610156578063c09cec7714610181578063f7654176146101d8575b600080fd5b34801561008957600080fd5b506100926101fa565b604051808273ffffffffffffffffffffffffffffffffffffffff1673ffffffffffffffffffffffffffffffffffffffff16815260200191505060405180910390f35b3480156100e057600080fd5b506100e9610220565b604051808273ffffffffffffffffffffffffffffffffffffffff1673ffffffffffffffffffffffffffffffffffffffff16815260200191505060405180910390f35b34801561013757600080fd5b50610140610246565b6040518082815260200191505060405180910390f35b34801561016257600080fd5b5061016b610250565b6040518082815260200191505060405180910390f35b34801561018d57600080fd5b50610196610256565b604051808273ffffffffffffffffffffffffffffffffffffffff1673ffffffffffffffffffffffffffffffffffffffff16815260200191505060405180910390f35b6101e061027b565b604051808215151515815260200191505060405180910390f35b600160009054906101000a900473ffffffffffffffffffffffffffffffffffffffff1681565b600260009054906101000a900473ffffffffffffffffffffffffffffffffffffffff1681565b6000600354905090565b60035481565b6000809054906101000a900473ffffffffffffffffffffffffffffffffffffffff1681565b600080600260009054906101000a900473ffffffffffffffffffffffffffffffffffffffff1673ffffffffffffffffffffffffffffffffffffffff163373ffffffffffffffffffffffffffffffffffffffff16141515610343576040517f08c379a00000000000000000000000000000000000000000000000000000000081526004018080602001828103825260178152602001807f53656e646572206973206e6f7420746865206f776e657200000000000000000081525060200191505060405180910390fd5b600060023481151561035157fe5b06141561036c5760023481151561036457fe5b049050610390565b60026001340381151561037b57fe5b04905060016003600082825401925050819055505b6000809054906101000a900473ffffffffffffffffffffffffffffffffffffffff1673ffffffffffffffffffffffffffffffffffffffff166108fc829081150290604051600060405180830381858888f193505050501580156103f7573d6000803e3d6000fd5b50600160009054906101000a900473ffffffffffffffffffffffffffffffffffffffff1673ffffffffffffffffffffffffffffffffffffffff166108fc829081150290604051600060405180830381858888f19350505050158015610460573d6000803e3d6000fd5b506001915050905600a165627a7a72305820d773fe987774091d4ce61843dfc851b415fbb566ed20f889be0f9cc686ead0dd0029",
  "source": "pragma solidity ^0.4.6;\n\ncontract Splitter {\n    address public bob;\n    address public carol;\n    address public owner;\n    uint public contractShare;\n\n    constructor (address _bob, address _carol) public {\n        require(_bob > 0);\n        require(_carol > 0);\n        owner = msg.sender;\n        bob = _bob;\n        carol = _carol;\n\n    }\n\n    function split() public payable returns(bool success) {\n        if( msg.sender != owner) {\n            revert(\"Sender is not the owner\");\n        }\n\n        uint splittedHalfAmount;\n\n        if(msg.value % 2 == 0) {\n            splittedHalfAmount = msg.value / 2;\n        } else {\n            splittedHalfAmount = (msg.value - 1) / 2;\n            contractShare += 1;\n        }\n\n        bob.transfer(splittedHalfAmount);\n        carol.transfer(splittedHalfAmount);\n\n        return true;\n    }\n\n    function getContractShare() public view returns(uint cshare) {\n        return contractShare;\n    }\n}",
  "sourcePath": "/home/mohanerra/ethereum-training/DAPPS/splitter/contracts/Splitter.sol",
  "compiler": {
    "name": "solc",
    "version": "0.4.24+commit.e67f0147.Emscripten.clang"
  },
  "schemaVersion": "2.0.1",
  "updatedAt": "2018-09-01T23:59:20.117Z"
}