{
  "contractName": "Splitter",
  "abi": [
    {
      "constant": true,
      "inputs": [
        {
          "name": "",
          "type": "address"
        }
      ],
      "name": "splittedAmountMap",
      "outputs": [
        {
          "name": "",
          "type": "uint256"
        }
      ],
      "payable": false,
      "stateMutability": "view",
      "type": "function"
    },
    {
      "constant": true,
      "inputs": [],
      "name": "carol",
      "outputs": [
        {
          "name": "",
          "type": "address"
        }
      ],
      "payable": false,
      "stateMutability": "view",
      "type": "function"
    },
    {
      "constant": true,
      "inputs": [],
      "name": "owner",
      "outputs": [
        {
          "name": "",
          "type": "address"
        }
      ],
      "payable": false,
      "stateMutability": "view",
      "type": "function"
    },
    {
      "constant": true,
      "inputs": [],
      "name": "contractShare",
      "outputs": [
        {
          "name": "",
          "type": "uint256"
        }
      ],
      "payable": false,
      "stateMutability": "view",
      "type": "function"
    },
    {
      "constant": true,
      "inputs": [],
      "name": "bob",
      "outputs": [
        {
          "name": "",
          "type": "address"
        }
      ],
      "payable": false,
      "stateMutability": "view",
      "type": "function"
    },
    {
      "inputs": [
        {
          "name": "_bob",
          "type": "address"
        },
        {
          "name": "_carol",
          "type": "address"
        }
      ],
      "payable": false,
      "stateMutability": "nonpayable",
      "type": "constructor"
    },
    {
      "constant": false,
      "inputs": [],
      "name": "split",
      "outputs": [
        {
          "name": "success",
          "type": "bool"
        }
      ],
      "payable": true,
      "stateMutability": "payable",
      "type": "function"
    },
    {
      "constant": false,
      "inputs": [],
      "name": "withdrawFunds",
      "outputs": [
        {
          "name": "success",
          "type": "bool"
        }
      ],
      "payable": true,
      "stateMutability": "payable",
      "type": "function"
    },
    {
      "constant": true,
      "inputs": [],
      "name": "getContractShare",
      "outputs": [
        {
          "name": "cshare",
          "type": "uint256"
        }
      ],
      "payable": false,
      "stateMutability": "view",
      "type": "function"
    },
    {
      "constant": true,
      "inputs": [
        {
          "name": "_address",
          "type": "address"
        }
      ],
      "name": "geSplittedAmount",
      "outputs": [
        {
          "name": "amount",
          "type": "uint256"
        }
      ],
      "payable": false,
      "stateMutability": "view",
      "type": "function"
    }
  ],
  "bytecode": "0x608060405234801561001057600080fd5b50604051604080610f7e833981018060405281019080805190602001909291908051906020019092919050505060008273ffffffffffffffffffffffffffffffffffffffff1611151561006257600080fd5b60008173ffffffffffffffffffffffffffffffffffffffff1611151561008757600080fd5b33600260006101000a81548173ffffffffffffffffffffffffffffffffffffffff021916908373ffffffffffffffffffffffffffffffffffffffff160217905550816000806101000a81548173ffffffffffffffffffffffffffffffffffffffff021916908373ffffffffffffffffffffffffffffffffffffffff16021790555080600160006101000a81548173ffffffffffffffffffffffffffffffffffffffff021916908373ffffffffffffffffffffffffffffffffffffffff1602179055505050610e248061015a6000396000f300608060405260043610610099576000357c0100000000000000000000000000000000000000000000000000000000900463ffffffff16806303cff2061461009e57806324600fc3146100f55780638b930f15146101175780638da5cb5b1461016e578063931549cf146101c5578063a498e7cd146101f0578063c09cec771461021b578063dc5d3a6814610272578063f7654176146102c9575b600080fd5b3480156100aa57600080fd5b506100df600480360381019080803573ffffffffffffffffffffffffffffffffffffffff1690602001909291905050506102eb565b6040518082815260200191505060405180910390f35b6100fd610303565b604051808215151515815260200191505060405180910390f35b34801561012357600080fd5b5061012c6109a4565b604051808273ffffffffffffffffffffffffffffffffffffffff1673ffffffffffffffffffffffffffffffffffffffff16815260200191505060405180910390f35b34801561017a57600080fd5b506101836109ca565b604051808273ffffffffffffffffffffffffffffffffffffffff1673ffffffffffffffffffffffffffffffffffffffff16815260200191505060405180910390f35b3480156101d157600080fd5b506101da6109f0565b6040518082815260200191505060405180910390f35b3480156101fc57600080fd5b506102056109fa565b6040518082815260200191505060405180910390f35b34801561022757600080fd5b50610230610a00565b604051808273ffffffffffffffffffffffffffffffffffffffff1673ffffffffffffffffffffffffffffffffffffffff16815260200191505060405180910390f35b34801561027e57600080fd5b506102b3600480360381019080803573ffffffffffffffffffffffffffffffffffffffff169060200190929190505050610a25565b6040518082815260200191505060405180910390f35b6102d1610b21565b604051808215151515815260200191505060405180910390f35b60036020528060005260406000206000915090505481565b600080600090506000809054906101000a900473ffffffffffffffffffffffffffffffffffffffff1673ffffffffffffffffffffffffffffffffffffffff163373ffffffffffffffffffffffffffffffffffffffff161415610571576000600360008060009054906101000a900473ffffffffffffffffffffffffffffffffffffffff1673ffffffffffffffffffffffffffffffffffffffff1673ffffffffffffffffffffffffffffffffffffffff1681526020019081526020016000205411156104fe57600360008060009054906101000a900473ffffffffffffffffffffffffffffffffffffffff1673ffffffffffffffffffffffffffffffffffffffff1673ffffffffffffffffffffffffffffffffffffffff1681526020019081526020016000205490506000600360008060009054906101000a900473ffffffffffffffffffffffffffffffffffffffff1673ffffffffffffffffffffffffffffffffffffffff1673ffffffffffffffffffffffffffffffffffffffff168152602001908152602001600020819055506000809054906101000a900473ffffffffffffffffffffffffffffffffffffffff1673ffffffffffffffffffffffffffffffffffffffff166108fc829081150290604051600060405180830381858888f193505050501580156104f8573d6000803e3d6000fd5b5061056c565b6040517f08c379a000000000000000000000000000000000000000000000000000000000815260040180806020018281038252601f8152602001807f446f6573206e6f7420686176652066756e647320746f2077697468647261770081525060200191505060405180910390fd5b61099c565b600160009054906101000a900473ffffffffffffffffffffffffffffffffffffffff1673ffffffffffffffffffffffffffffffffffffffff163373ffffffffffffffffffffffffffffffffffffffff1614156107dd57600060036000600160009054906101000a900473ffffffffffffffffffffffffffffffffffffffff1673ffffffffffffffffffffffffffffffffffffffff1673ffffffffffffffffffffffffffffffffffffffff16815260200190815260200160002054111561076a5760036000600160009054906101000a900473ffffffffffffffffffffffffffffffffffffffff1673ffffffffffffffffffffffffffffffffffffffff1673ffffffffffffffffffffffffffffffffffffffff168152602001908152602001600020549050600060036000600160009054906101000a900473ffffffffffffffffffffffffffffffffffffffff1673ffffffffffffffffffffffffffffffffffffffff1673ffffffffffffffffffffffffffffffffffffffff16815260200190815260200160002081905550600160009054906101000a900473ffffffffffffffffffffffffffffffffffffffff1673ffffffffffffffffffffffffffffffffffffffff166108fc829081150290604051600060405180830381858888f19350505050158015610764573d6000803e3d6000fd5b506107d8565b6040517f08c379a000000000000000000000000000000000000000000000000000000000815260040180806020018281038252601f8152602001807f446f6573206e6f7420686176652066756e647320746f2077697468647261770081525060200191505060405180910390fd5b61099b565b600260009054906101000a900473ffffffffffffffffffffffffffffffffffffffff1673ffffffffffffffffffffffffffffffffffffffff163373ffffffffffffffffffffffffffffffffffffffff16141561092c57600060045411156108b95760045490506000600481905550600260009054906101000a900473ffffffffffffffffffffffffffffffffffffffff1673ffffffffffffffffffffffffffffffffffffffff166108fc829081150290604051600060405180830381858888f193505050501580156108b3573d6000803e3d6000fd5b50610927565b6040517f08c379a000000000000000000000000000000000000000000000000000000000815260040180806020018281038252601f8152602001807f446f6573206e6f7420686176652066756e647320746f2077697468647261770081525060200191505060405180910390fd5b61099a565b6040517f08c379a00000000000000000000000000000000000000000000000000000000081526004018080602001828103825260148152602001807f756e2d7265636f676e697a65642053656e64657200000000000000000000000081525060200191505060405180910390fd5b5b5b600191505090565b600160009054906101000a900473ffffffffffffffffffffffffffffffffffffffff1681565b600260009054906101000a900473ffffffffffffffffffffffffffffffffffffffff1681565b6000600454905090565b60045481565b6000809054906101000a900473ffffffffffffffffffffffffffffffffffffffff1681565b6000808273ffffffffffffffffffffffffffffffffffffffff16111515610ada576040517f08c379a00000000000000000000000000000000000000000000000000000000081526004018080602001828103825260268152602001807f6d7573742070726f7669646520612076616c6964206164647265737320746f2081526020017f6c6f6f6b7570000000000000000000000000000000000000000000000000000081525060400191505060405180910390fd5b600360008373ffffffffffffffffffffffffffffffffffffffff1673ffffffffffffffffffffffffffffffffffffffff168152602001908152602001600020549050919050565b600080600260009054906101000a900473ffffffffffffffffffffffffffffffffffffffff1673ffffffffffffffffffffffffffffffffffffffff163373ffffffffffffffffffffffffffffffffffffffff16141515610be9576040517f08c379a00000000000000000000000000000000000000000000000000000000081526004018080602001828103825260178152602001807f53656e646572206973206e6f7420746865206f776e657200000000000000000081525060200191505060405180910390fd5b6000600234811515610bf757fe5b061415610cef57600234811515610c0a57fe5b04905080600360008060009054906101000a900473ffffffffffffffffffffffffffffffffffffffff1673ffffffffffffffffffffffffffffffffffffffff1673ffffffffffffffffffffffffffffffffffffffff168152602001908152602001600020600082825401925050819055508060036000600160009054906101000a900473ffffffffffffffffffffffffffffffffffffffff1673ffffffffffffffffffffffffffffffffffffffff1673ffffffffffffffffffffffffffffffffffffffff16815260200190815260200160002060008282540192505081905550610df0565b600260013403811515610cfe57fe5b04905080600360008060009054906101000a900473ffffffffffffffffffffffffffffffffffffffff1673ffffffffffffffffffffffffffffffffffffffff1673ffffffffffffffffffffffffffffffffffffffff168152602001908152602001600020600082825401925050819055508060036000600160009054906101000a900473ffffffffffffffffffffffffffffffffffffffff1673ffffffffffffffffffffffffffffffffffffffff1673ffffffffffffffffffffffffffffffffffffffff1681526020019081526020016000206000828254019250508190555060016004600082825401925050819055505b6001915050905600a165627a7a72305820d642549dbbd9dbed1c092004b9b5c2c85cf647d8c19505c7e871f5bf9e6ed29d0029",
  "source": "pragma solidity ^0.4.6;\n\ncontract Splitter {\n    address public bob;\n    address public carol;\n    address public owner;\n    mapping(address => uint) public splittedAmountMap;\n    uint public contractShare;\n\n    constructor (address _bob, address _carol) public {\n        require(_bob > 0);\n        require(_carol > 0);\n        owner = msg.sender;\n        bob = _bob;\n        carol = _carol;\n\n    }\n\n    function split() public payable returns(bool success) {\n        if( msg.sender != owner) {\n            revert(\"Sender is not the owner\");\n        }\n\n        uint splittedHalfAmount;\n\n        if(msg.value % 2 == 0) {\n            splittedHalfAmount = msg.value / 2;\n            splittedAmountMap[bob] += splittedHalfAmount;\n            splittedAmountMap[carol] += splittedHalfAmount;\n        } else {\n            splittedHalfAmount = (msg.value - 1) / 2;\n            splittedAmountMap[bob] += splittedHalfAmount;\n            splittedAmountMap[carol] += splittedHalfAmount;\n            contractShare += 1;\n        }\n\n        return true;\n    }\n\n    function withdrawFunds() public payable returns(bool success) {\n        uint amountToTransfer = 0;\n        if(msg.sender == bob) {\n            if(splittedAmountMap[bob] > 0) {\n                amountToTransfer = splittedAmountMap[bob];\n                splittedAmountMap[bob] = 0;\n                bob.transfer(amountToTransfer);\n            } else {\n                revert(\"Does not have funds to withdraw\");\n            }\n        } else if(msg.sender == carol) {\n            if(splittedAmountMap[carol] > 0) {\n                amountToTransfer = splittedAmountMap[carol];\n                splittedAmountMap[carol] = 0;\n                carol.transfer(amountToTransfer);\n            } else {\n                revert(\"Does not have funds to withdraw\");\n            }\n        } else if(msg.sender == owner) {\n            if(contractShare > 0) {\n                amountToTransfer = contractShare;\n                contractShare = 0;\n                owner.transfer(amountToTransfer);\n            } else {\n                revert(\"Does not have funds to withdraw\");\n            }            \n        } else {\n            revert(\"un-recognized Sender\");\n        }\n        return true;\n    }\n\n    function getContractShare() public view returns(uint cshare) {\n        return contractShare;\n    }\n\n    function geSplittedAmount(address _address) public view returns(uint amount) {\n        require(_address > 0, \"must provide a valid address to lookup\");\n        return splittedAmountMap[_address];\n    }\n}",
  "sourcePath": "/home/mohanerra/ethereum-training/DAPPS/github/ethereumtraining-project1/contracts/Splitter.sol",
  "compiler": {
    "name": "solc",
    "version": "0.4.24+commit.e67f0147.Emscripten.clang"
  },
  "schemaVersion": "2.0.1",
  "updatedAt": "2018-09-04T04:40:45.211Z"
}