{
  "contractName": "Splitter",
  "abi": [
    {
      "constant": true,
      "inputs": [
        {
          "name": "",
          "type": "address"
        }
      ],
      "name": "balances",
      "outputs": [
        {
          "name": "",
          "type": "uint256"
        }
      ],
      "payable": false,
      "stateMutability": "view",
      "type": "function"
    },
    {
      "constant": true,
      "inputs": [],
      "name": "owner",
      "outputs": [
        {
          "name": "",
          "type": "address"
        }
      ],
      "payable": false,
      "stateMutability": "view",
      "type": "function"
    },
    {
      "inputs": [],
      "payable": false,
      "stateMutability": "nonpayable",
      "type": "constructor"
    },
    {
      "constant": false,
      "inputs": [
        {
          "name": "receiver1",
          "type": "address"
        },
        {
          "name": "receiver2",
          "type": "address"
        }
      ],
      "name": "split",
      "outputs": [
        {
          "name": "success",
          "type": "bool"
        }
      ],
      "payable": true,
      "stateMutability": "payable",
      "type": "function"
    },
    {
      "constant": false,
      "inputs": [],
      "name": "withdrawFunds",
      "outputs": [
        {
          "name": "success",
          "type": "bool"
        }
      ],
      "payable": false,
      "stateMutability": "nonpayable",
      "type": "function"
    }
  ],
  "bytecode": "0x608060405234801561001057600080fd5b50336000806101000a81548173ffffffffffffffffffffffffffffffffffffffff021916908373ffffffffffffffffffffffffffffffffffffffff160217905550610744806100606000396000f300608060405260043610610062576000357c0100000000000000000000000000000000000000000000000000000000900463ffffffff1680630f2c93291461006757806324600fc3146100d557806327e235e3146101045780638da5cb5b1461015b575b600080fd5b6100bb600480360381019080803573ffffffffffffffffffffffffffffffffffffffff169060200190929190803573ffffffffffffffffffffffffffffffffffffffff1690602001909291905050506101b2565b604051808215151515815260200191505060405180910390f35b3480156100e157600080fd5b506100ea610460565b604051808215151515815260200191505060405180910390f35b34801561011057600080fd5b50610145600480360381019080803573ffffffffffffffffffffffffffffffffffffffff1690602001909291905050506106db565b6040518082815260200191505060405180910390f35b34801561016757600080fd5b506101706106f3565b604051808273ffffffffffffffffffffffffffffffffffffffff1673ffffffffffffffffffffffffffffffffffffffff16815260200191505060405180910390f35b60008060008473ffffffffffffffffffffffffffffffffffffffff16111515610243576040517f08c379a00000000000000000000000000000000000000000000000000000000081526004018080602001828103825260198152602001807f696e76616c69642072656365697665723120616464726573730000000000000081525060200191505060405180910390fd5b60008373ffffffffffffffffffffffffffffffffffffffff161115156102d1576040517f08c379a00000000000000000000000000000000000000000000000000000000081526004018080602001828103825260198152602001807f696e76616c69642072656365697665723220616464726573730000000000000081525060200191505060405180910390fd5b6002348115156102dd57fe5b04905080600160008673ffffffffffffffffffffffffffffffffffffffff1673ffffffffffffffffffffffffffffffffffffffff1681526020019081526020016000208190555080600160008573ffffffffffffffffffffffffffffffffffffffff1673ffffffffffffffffffffffffffffffffffffffff16815260200190815260200160002081905550600060023481151561037657fe5b0611156104555760018060008060009054906101000a900473ffffffffffffffffffffffffffffffffffffffff1673ffffffffffffffffffffffffffffffffffffffff1673ffffffffffffffffffffffffffffffffffffffff168152602001908152602001600020600082825401925050819055506000809054906101000a900473ffffffffffffffffffffffffffffffffffffffff1673ffffffffffffffffffffffffffffffffffffffff166108fc60019081150290604051600060405180830381858888f19350505050158015610453573d6000803e3d6000fd5b505b600191505092915050565b6000806000600160003373ffffffffffffffffffffffffffffffffffffffff1673ffffffffffffffffffffffffffffffffffffffff1681526020019081526020016000205411151561051a576040517f08c379a00000000000000000000000000000000000000000000000000000000081526004018080602001828103825260148152602001807f6e6f2066756e647320746f20776974686472617700000000000000000000000081525060200191505060405180910390fd5b6000809054906101000a900473ffffffffffffffffffffffffffffffffffffffff1673ffffffffffffffffffffffffffffffffffffffff163373ffffffffffffffffffffffffffffffffffffffff1614151515610605576040517f08c379a000000000000000000000000000000000000000000000000000000000815260040180806020018281038252602a8152602001807f7468657265206973206e6f7468696e6720746f20776974686472617720666f7281526020017f20746865206f776e65720000000000000000000000000000000000000000000081525060400191505060405180910390fd5b600160003373ffffffffffffffffffffffffffffffffffffffff1673ffffffffffffffffffffffffffffffffffffffff1681526020019081526020016000205490506000600160003373ffffffffffffffffffffffffffffffffffffffff1673ffffffffffffffffffffffffffffffffffffffff168152602001908152602001600020819055503373ffffffffffffffffffffffffffffffffffffffff166108fc829081150290604051600060405180830381858888f193505050501580156106d2573d6000803e3d6000fd5b50600191505090565b60016020528060005260406000206000915090505481565b6000809054906101000a900473ffffffffffffffffffffffffffffffffffffffff16815600a165627a7a72305820f98d68e726897ad02d6db69d343a4bf5b5863481b7ef3c7d30286a9bc01d96420029",
  "source": "pragma solidity ^0.4.6;\n\ncontract Splitter {\n\n    address public owner;\n    mapping(address => uint) public balances;\n    // uint public contractShare;\n\n    constructor () public {\n        owner = msg.sender;\n\n    }\n\n    function split(address receiver1, address receiver2) public payable returns(bool success) {\n        require(receiver1 > 0, \"invalid receiver1 address\");\n        require(receiver2 > 0, \"invalid receiver2 address\");\n\n        uint splittedHalfAmount = msg.value/2;\n        balances[receiver1] = splittedHalfAmount;\n        balances[receiver2] = splittedHalfAmount;\n\n        if(msg.value % 2 > 0) {\n            balances[owner] += 1;\n            //transfer the balance to the owner right away\n            //balances[owner] is still kept for accounting purposes only\n            owner.transfer(1);\n        } \n\n        return true;\n    }\n\n    function withdrawFunds() public returns(bool success) {\n        require(balances[msg.sender] > 0, \"no funds to withdraw\");\n        //since owner's remainder balance is sent right away during split function, there is nothing to withdraw\n        require(msg.sender != owner, \"there is nothing to withdraw for the owner\");\n        uint amountToTransfer = balances[msg.sender];\n        balances[msg.sender] = 0;\n        msg.sender.transfer(amountToTransfer);\n\n        return true;\n    }\n\n}",
  "sourcePath": "/home/mohanerra/ethereum-training/DAPPS/github/ethereumtraining-project1/contracts/Splitter.sol",
  "compiler": {
    "name": "solc",
    "version": "0.4.24+commit.e67f0147.Emscripten.clang"
  },
  "schemaVersion": "2.0.1",
  "updatedAt": "2018-09-10T05:59:07.785Z"
}