{
  "contractName": "Splitter",
  "abi": [
    {
      "constant": true,
      "inputs": [
        {
          "name": "",
          "type": "address"
        }
      ],
      "name": "balances",
      "outputs": [
        {
          "name": "",
          "type": "uint256"
        }
      ],
      "payable": false,
      "stateMutability": "view",
      "type": "function"
    },
    {
      "constant": false,
      "inputs": [
        {
          "name": "onOff",
          "type": "bool"
        }
      ],
      "name": "runSwitch",
      "outputs": [
        {
          "name": "success",
          "type": "bool"
        }
      ],
      "payable": false,
      "stateMutability": "nonpayable",
      "type": "function"
    },
    {
      "constant": true,
      "inputs": [],
      "name": "owner",
      "outputs": [
        {
          "name": "",
          "type": "address"
        }
      ],
      "payable": false,
      "stateMutability": "view",
      "type": "function"
    },
    {
      "constant": true,
      "inputs": [],
      "name": "running",
      "outputs": [
        {
          "name": "",
          "type": "bool"
        }
      ],
      "payable": false,
      "stateMutability": "view",
      "type": "function"
    },
    {
      "inputs": [],
      "payable": false,
      "stateMutability": "nonpayable",
      "type": "constructor"
    },
    {
      "anonymous": false,
      "inputs": [
        {
          "indexed": false,
          "name": "sender",
          "type": "address"
        },
        {
          "indexed": false,
          "name": "receiver1",
          "type": "address"
        },
        {
          "indexed": false,
          "name": "receiver2",
          "type": "address"
        },
        {
          "indexed": false,
          "name": "amount",
          "type": "uint256"
        }
      ],
      "name": "LogSplitFunds",
      "type": "event"
    },
    {
      "anonymous": false,
      "inputs": [
        {
          "indexed": false,
          "name": "sender",
          "type": "address"
        },
        {
          "indexed": false,
          "name": "amount",
          "type": "uint256"
        }
      ],
      "name": "LogSendAmount",
      "type": "event"
    },
    {
      "constant": false,
      "inputs": [
        {
          "name": "receiver1",
          "type": "address"
        },
        {
          "name": "receiver2",
          "type": "address"
        }
      ],
      "name": "splitFunds",
      "outputs": [
        {
          "name": "success",
          "type": "bool"
        }
      ],
      "payable": true,
      "stateMutability": "payable",
      "type": "function"
    },
    {
      "constant": false,
      "inputs": [],
      "name": "withdrawFunds",
      "outputs": [
        {
          "name": "success",
          "type": "bool"
        }
      ],
      "payable": false,
      "stateMutability": "nonpayable",
      "type": "function"
    }
  ],
  "bytecode": "0x608060405234801561001057600080fd5b50336000806101000a81548173ffffffffffffffffffffffffffffffffffffffff021916908373ffffffffffffffffffffffffffffffffffffffff1602179055506001600060146101000a81548160ff021916908315150217905550610a128061007b6000396000f300608060405260043610610078576000357c0100000000000000000000000000000000000000000000000000000000900463ffffffff16806324600fc31461007d57806327e235e3146100ac5780632accf2f7146101035780632dd97058146101715780638da5cb5b146101b8578063d85bd5261461020f575b600080fd5b34801561008957600080fd5b5061009261023e565b604051808215151515815260200191505060405180910390f35b3480156100b857600080fd5b506100ed600480360381019080803573ffffffffffffffffffffffffffffffffffffffff1690602001909291905050506104c4565b6040518082815260200191505060405180910390f35b610157600480360381019080803573ffffffffffffffffffffffffffffffffffffffff169060200190929190803573ffffffffffffffffffffffffffffffffffffffff1690602001909291905050506104dc565b604051808215151515815260200191505060405180910390f35b34801561017d57600080fd5b5061019e6004803603810190808035151590602001909291905050506108c5565b604051808215151515815260200191505060405180910390f35b3480156101c457600080fd5b506101cd6109ae565b604051808273ffffffffffffffffffffffffffffffffffffffff1673ffffffffffffffffffffffffffffffffffffffff16815260200191505060405180910390f35b34801561021b57600080fd5b506102246109d3565b604051808215151515815260200191505060405180910390f35b60008060011515600060149054906101000a900460ff1615151415156102cc576040517f08c379a00000000000000000000000000000000000000000000000000000000081526004018080602001828103825260128152602001807f63616e6e6f742065786563757465206e6f77000000000000000000000000000081525060200191505060405180910390fd5b6000600160003373ffffffffffffffffffffffffffffffffffffffff1673ffffffffffffffffffffffffffffffffffffffff16815260200190815260200160002054111515610383576040517f08c379a00000000000000000000000000000000000000000000000000000000081526004018080602001828103825260148152602001807f6e6f2066756e647320746f20776974686472617700000000000000000000000081525060200191505060405180910390fd5b600160003373ffffffffffffffffffffffffffffffffffffffff1673ffffffffffffffffffffffffffffffffffffffff1681526020019081526020016000205490506000600160003373ffffffffffffffffffffffffffffffffffffffff1673ffffffffffffffffffffffffffffffffffffffff168152602001908152602001600020819055503373ffffffffffffffffffffffffffffffffffffffff166108fc829081150290604051600060405180830381858888f19350505050158015610450573d6000803e3d6000fd5b507f1eb61d49589e89fea77be522f6779d16f33c12c6d622099d2f38f6c5e3583d053382604051808373ffffffffffffffffffffffffffffffffffffffff1673ffffffffffffffffffffffffffffffffffffffff1681526020018281526020019250505060405180910390a1600191505090565b60016020528060005260406000206000915090505481565b60008060011515600060149054906101000a900460ff16151514151561056a576040517f08c379a00000000000000000000000000000000000000000000000000000000081526004018080602001828103825260128152602001807f63616e6e6f742065786563757465206e6f77000000000000000000000000000081525060200191505060405180910390fd5b60008473ffffffffffffffffffffffffffffffffffffffff161115156105f8576040517f08c379a00000000000000000000000000000000000000000000000000000000081526004018080602001828103825260198152602001807f696e76616c69642072656365697665723120616464726573730000000000000081525060200191505060405180910390fd5b60008373ffffffffffffffffffffffffffffffffffffffff16111515610686576040517f08c379a00000000000000000000000000000000000000000000000000000000081526004018080602001828103825260198152602001807f696e76616c69642072656365697665723220616464726573730000000000000081525060200191505060405180910390fd5b60023481151561069257fe5b04905080600160008673ffffffffffffffffffffffffffffffffffffffff1673ffffffffffffffffffffffffffffffffffffffff1681526020019081526020016000208190555080600160008573ffffffffffffffffffffffffffffffffffffffff1673ffffffffffffffffffffffffffffffffffffffff168152602001908152602001600020819055507fb343b0b1e679ef97dbcde70eb060e0678664c30d6bc13b5864609991c5595b2c33858534604051808573ffffffffffffffffffffffffffffffffffffffff1673ffffffffffffffffffffffffffffffffffffffff1681526020018473ffffffffffffffffffffffffffffffffffffffff1673ffffffffffffffffffffffffffffffffffffffff1681526020018373ffffffffffffffffffffffffffffffffffffffff1673ffffffffffffffffffffffffffffffffffffffff16815260200182815260200194505050505060405180910390a160006002348115156107fe57fe5b0611156108ba573373ffffffffffffffffffffffffffffffffffffffff166108fc60019081150290604051600060405180830381858888f1935050505015801561084c573d6000803e3d6000fd5b507f1eb61d49589e89fea77be522f6779d16f33c12c6d622099d2f38f6c5e3583d05336001604051808373ffffffffffffffffffffffffffffffffffffffff1673ffffffffffffffffffffffffffffffffffffffff1681526020018281526020019250505060405180910390a15b600191505092915050565b60008060009054906101000a900473ffffffffffffffffffffffffffffffffffffffff1673ffffffffffffffffffffffffffffffffffffffff163373ffffffffffffffffffffffffffffffffffffffff1614151561098b576040517f08c379a000000000000000000000000000000000000000000000000000000000815260040180806020018281038252601b8152602001807f4f6e6c79206f776e65722063616e20657865637574652074686973000000000081525060200191505060405180910390fd5b81600060146101000a81548160ff02191690831515021790555060019050919050565b6000809054906101000a900473ffffffffffffffffffffffffffffffffffffffff1681565b600060149054906101000a900460ff16815600a165627a7a72305820816e9976dcbfd04f8da60e6dbbc75b0e145a1772d3c4f45c703c0869c3884cf40029",
  "source": "pragma solidity ^0.4.6;\n\nimport \"./Pausable.sol\";\n\ncontract Splitter is Pausable{\n\n    // address public owner;\n    mapping(address => uint) public balances;\n\n    event LogSplitFunds(address sender, address receiver1, address receiver2, uint amount);\n    event LogSendAmount(address sender, uint amount);\n\n    constructor () public {\n        // owner = msg.sender;\n\n    }\n\n    function splitFunds(address receiver1, address receiver2) public payable onlyIfRunning returns(bool success) {\n        require(receiver1 > 0, \"invalid receiver1 address\");\n        require(receiver2 > 0, \"invalid receiver2 address\");\n\n        uint splittedHalfAmount = msg.value/2;\n        balances[receiver1] = splittedHalfAmount;\n        balances[receiver2] = splittedHalfAmount;\n\n        emit LogSplitFunds(msg.sender, receiver1, receiver2, msg.value);\n\n        if(msg.value % 2 > 0) {\n            //send the change back to the sender\n            msg.sender.transfer(1);\n            emit LogSendAmount(msg.sender, 1);\n        } \n\n        return true;\n    }\n\n    function withdrawFunds() public onlyIfRunning returns(bool success) {\n        require(balances[msg.sender] > 0, \"no funds to withdraw\");\n        uint amountToTransfer = balances[msg.sender];\n        balances[msg.sender] = 0;\n        msg.sender.transfer(amountToTransfer);\n        emit LogSendAmount(msg.sender, amountToTransfer);\n        return true;\n    }\n\n}",
  "sourcePath": "/home/mohanerra/ethereum-training/DAPPS/github/ethereumtraining-project1/contracts/Splitter.sol",
  "compiler": {
    "name": "solc",
    "version": "0.4.24+commit.e67f0147.Emscripten.clang"
  },
  "schemaVersion": "2.0.1",
  "updatedAt": "2018-09-14T01:49:49.533Z"
}